:060000000A128A11122809
:10000800FE00030EF6000408F7000A08F800831241
:1000180003137F08F9000A128A11B6290A128A11F5
:10002800BE2AFF1B1F2883137F1883170008840A22
:100038000319FF0A080000308A000408840A8207AE
:100048000034413454342B3443344E344D34493421
:100058003D3432342C3432342C3430342C34303473
:100068002C34303400345234453443344934563413
:100078004534443420344D34533447340034413407
:1000880054342B3443344D34473446343D343134BE
:100098000034473453344D342034433448344534E1
:1000A80043344B340034413454340034831603133E
:1000B800071387178312031385018316031385011A
:1000C8008312031387018316031388018312031312
:1000D80088018316031389018312031389012630CB
:1000E8008316031398009030831203139800193075
:1000F8008316031399008316031788018901383082
:1001080083120313C4000030C5000A128A11D022DA
:100118000A128A110E3083120313C4000030C5007E
:100128000A128A11D0220A128A1106308312031386
:10013800CA000E30C900B030C800C80BA128C90BCE
:10014800A128CA0BA1280A128A115E210A128A1153
:10015800831603138C168C1AB228B4280B17B528EB
:100168000B130B1BB828BA288B17BB288B138030AE
:1001780083120313C4000030C5000A128A11D0226A
:100188000A128A11013083120313C4000030C5001B
:100198000A128A11D0220A128A11293083120313F3
:1001A800C4008030C5000A128A1163220A128A111B
:1001B800DD28013072067304031DE328E4284B2967
:1001C800013083120313C4000030C5000A128A11DB
:1001D800D0220A128A11803083120313C40000301F
:1001E800C5000A128A11D0220A128A11133083120A
:1001F8000313C4008030C5000A128A1163220A1250
:100208008A118312031324086F3A031D0C290D2940
:10021800152925086E3A031D1229132915290514D5
:10022800152924086F3A031D1A291B29292925088D
:10023800663A031D2029212929292608663A031D23
:1002480026292729292905102929C030C40000306A
:10025800C5000A128A11D0220A128A112430831288
:100268000313C4000030C5000A128A1163220A125F
:100278008A11F001F10183120313A001A1010A12EE
:100288008A1134220A128A11F201F3014B2906302D
:1002980083120313CA000E30C900B030C800C80B5F
:1002A8005329C90B5329CA0B5329DD28DD280A1203
:1002B8008A11122833300A128A1101220A128A116D
:1002C8000D300A128A11A6220A128A110A300A125D
:1002D8008A11A6220A128A11823083120313C700D8
:1002E800DD30C600C60B7629C70B76297B291F305F
:1002F8000A128A1101220A128A110D300A128A1171
:10030800A6220A128A110A300A128A11A6220A1291
:100318008A11823083120313C700DD30C600C60B72
:100328009329C70B9329982901300A128A110122AF
:100338000A128A110D300A128A11A6220A128A118B
:100348000A300A128A11A6220A128A1182308312EE
:100358000313C700DD30C600C60BB029C70BB02990
:10036800B52908008C1EB929BA29F4291A08F500FC
:100378007508F400023022062304031DC429C52988
:10038800D8297408F5007008243E84007508831382
:1003980080000130F2000030F3000130F00703184C
:1003A800F10A0030F107D82974080A3A031DDD293B
:1003B800DE29E4290130A2070318A30A0030A307A5
:1003C80074080D3A031DE929EA29F4297008FF3E4B
:1003D800243E840083138001A201A301F429F42997
:1003E8008C12F4017908FF0078088A0077088400E5
:1003F800760E8300FE0E7E0E090083120313C500DD
:10040800242A450884000A128A111F200A128A1118
:1004180099000130C2004208C507122A0C1E152A8D
:10042800162A122A0C120630C4000E30C300B0304F
:10043800C200C20B1D2AC30B1D2AC40B1D2A242A65
:1004480083120313450884000A128A111F200A1216
:100458008A110038031D312A322A052A332A080056
:1004680083120313C201C3014308803AFF0080309E
:100478007F02031D412A1E304202031C442A452ADA
:10048800472A622A622A831203134208243E840000
:10049800831380010130C2070318C30A0030C30761
:1004A8004308803AFF0080307F02031D5D2A1E301A
:1004B8004202031C602A612A472A622A08007B2A12
:1004C80009144508FF00440884000A128A111520FF
:1004D8000A128A1188000130C4070318C50A0030BF
:1004E800C5070A128A118D220A128A117B2A8312E1
:1004F80003134508FF00440884000A128A111520D6
:100508000A128A110038031D8A2A8B2A642A8C2A27
:1005180008008312031389140D30C300FB30C20096
:10052800C20B942AC30B942A992A831203138910A5
:100538000D30C300FB30C200C20BA02AC30BA02A97
:10054800A52A080083120313C50045089900AC2AA0
:100558000C1EAF2AB02AAC2A0C120630C4000E308A
:10056800C300B030C200C20BB72AC30BB72AC40BF2
:10057800B72A0800F001F101F201F301F401831335
:100588002030840042300A128A11DB220A128A11B2
:1005980083010A128A115A28831203130910440886
:1005A80088000A128A118D220A128A110800640032
:0E05B8008001840A0406031900340406DC2ABC
:02400E00E42CA0
:00000001FF
